:0300000002008378
:0C008300787FE4F6D8FD758108020003C8
:10000300C297D296D295D2947508FF8508A0209303
:100013001012005F20930A7508EE7F327E001200F3
:100023006320921012005F20920A7508DD7F327EF2
:100033000012006320911012005F20910A7508BB23
:100043007F327E001200632090C112005F2090BBBC
:0C0053007508777F327E0012006380AFDA
:04005F007F0A7E0096
:10006300E4FDFCC3ED9FEC9E5015E4FBFA0BBB00D3
:0F007300010AEB646E4A70F50DBD00010C80E4CC
:01008200225B
:00000001FF
