:0300000002000EED
:0C000E00787FE4F6D8FD75810D020055E6
:0801240002080000020A001E9F
:10010B00758901758AF6758CFFD2AFD28CD2A92274
:08011B007F127EEBDEFEDFFC2B
:0101230022B9
:03000B000200D61A
:1000D600C0E0C0D0758AF6758CFF0509E509700287
:1000E6000508C3950DE508950C4002D2A0C3E509A5
:1000F600950BE508950A4008C2A075080075090029
:05010600D0D0D0E03272
:10009A0012010BC2A0E4F50CF50D12011B050DE5CA
:1000AA000D7002050CC3941EE50C940040EC750C0F
:1000BA0000750D1ED3E50D9400E50C940040D61290
:0C00CA00011BE50D150D70EC150C80E815
:10001A0002009AE493A3F8E493A34003F68001F262
:10002A0008DFF48029E493A3F85407240CC8C333E7
:10003A00C4540F4420C8834004F456800146F6DFB6
:10004A00E4800B0102040810204080900124E47E21
:10005A00019360BCA3FF543F30E509541FFEE493AB
:10006A00A360010ECF54C025E060A840B8E493A372
:10007A00FAE493A3F8E493A3C8C582C8CAC583CA9D
:10008A00F0A3C8C582C8CAC583CADFE9DEE780BE55
:01012C0000D2
:00000001FF
