:030000000201A753
:0C01A700787FE4F6D8FD7581100201EEAF
:0802C000FEFDFBF7EFDFBF7F3D
:0302C80001090029
:100233007508FF8508A075907F1200038E0C8F0D43
:10024300E50D450C701A7590BF1200038E0C8F0DCF
:10025300E50D450C700A7590EF1200038E0C8F0D9F
:10026300E50D24FFFFE50C34FFFE7C007D08120042
:10027300F68C0C8D0DD3E50D9407E50C648094800A
:1002830050B1C3E50C6480948040A874C0250DF57B
:0D029300827402350CF583E493F508809623
:1002A000E4FDFCC3ED9FEC9E5015E4FBFA0BBB0094
:0F02B000010AEB646E4A70F50DBD00010C80E48D
:0102BF00221C
:10000300E4F50EF50FE590540FF510640F7003023D
:1000130000F17F0A7E001202A0E590540FF51064F0
:100023000F70030200E3859010E51012012C0065A8
:1000330077006D7B00757D007D7E0085B7008DBBED
:100043000095BD009DBE00A5D700ADDB00B5DD006A
:10005300BDDE00C5E700CDEB00D5ED00DDEE000011
:1000630000E3750E00750F018076750E00750F02A3
:10007300806E750E00750F038066750E00750F0494
:10008300805E750E00750F058056750E00750F06A0
:10009300804E750E00750F078046750E00750F08AC
:1000A300803E750E00750F098036750E00750F0AB8
:1000B300802E750E00750F0B8026750E00750F0CC4
:1000C300801E750E00750F0D8016750E00750F0ED0
:1000D300800E750E00750F0F8006750E00750F10DC
:1000E300E510640F600885901053100F80F2AE0E78
:0200F300AF0F4D
:0100F50022E8
:1001B300020233E493A3F8E493A34003F68001F22D
:1001C30008DFF48029E493A3F85407240CC8C3334D
:1001D300C4540F4420C8834004F456800146F6DF1C
:1001E300E4800B01020408102040809002C8E47EE2
:1001F300019360BCA3FF543F30E509541FFEE49311
:10020300A360010ECF54C025E060A840B8E493A3D7
:10021300FAE493A3F8E493A3C8C582C8CAC583CA02
:10022300F0A3C8C582C8CAC583CADFE9DEE780BEBA
:0102CB000032
:1000F600C2D5EC30E709B2D5E4C39DFDE49CFCEE25
:1001060030E715B2D5E4C39FFFE49EFE120152C349
:10011600E49DFDE49CFC800312015230D507C3E444
:060126009FFFE49EFE2293
:10012C00D083D082F8E4937012740193700DA3A362
:10013C0093F8740193F5828883E473740293686076
:06014C00EFA3A3A380DF76
:10015200BC000BBE0029EF8DF084FFADF022E4CC91
:10016200F875F008EF2FFFEE33FEEC33FCEE9DEC5A
:10017200984005FCEE9DFE0FD5F0E9E4CEFD22EDA0
:10018200F8F5F0EE8420D21CFEADF075F008EF2FEA
:10019200FFED33FD4007985006D5F0F222C398FDDB
:0501A2000FD5F0EA2278
:00000001FF
