:030000000200E417
:0C00E400787FE4F6D8FD75810B02000364
:10000300750AFF850AA0E4F508F50975907FE59068
:10001300540FF50B640F604B7F0A7E001200C4E59A
:1000230090540FF50B640F603A85900BE50B248514
:10003300601024FE601114601324077018750AFE03
:10004300800D750AFD8008750AFB8003750AF77534
:100053000800750901E50B640F600885900B530BCD
:100063000F80F2E5094508709A7590BFE590540F2B
:10007300F50B640F608D7F0A7E001200C4E5905477
:100083000FF50B640F700302000685900BE50B243C
:1000930045601024FE601114601324077012750A62
:1000A300EF800D750ADF8008750ABF8003750A7F2C
:1000B300E50B640F700302000685900B530B0F8052
:0100C300EF4D
:1000C400E4FDFCC3ED9FEC9E5015E4FBFA0BBB0072
:0F00D400010AEB646E4A70F50DBD00010C80E46B
:0100E30022FA
:00000001FF
